{
  "_format": "hh-sol-artifact-1",
  "contractName": "MetadriveFile",
  "sourceName": "contracts/MetadriveFile.sol",
  "abi": [
    {
      "inputs": [],
      "stateMutability": "nonpayable",
      "type": "constructor"
    },
    {
      "anonymous": false,
      "inputs": [
        {
          "indexed": true,
          "internalType": "address",
          "name": "owner",
          "type": "address"
        },
        {
          "indexed": true,
          "internalType": "address",
          "name": "approved",
          "type": "address"
        },
        {
          "indexed": true,
          "internalType": "uint256",
          "name": "tokenId",
          "type": "uint256"
        }
      ],
      "name": "Approval",
      "type": "event"
    },
    {
      "anonymous": false,
      "inputs": [
        {
          "indexed": true,
          "internalType": "address",
          "name": "owner",
          "type": "address"
        },
        {
          "indexed": true,
          "internalType": "address",
          "name": "operator",
          "type": "address"
        },
        {
          "indexed": false,
          "internalType": "bool",
          "name": "approved",
          "type": "bool"
        }
      ],
      "name": "ApprovalForAll",
      "type": "event"
    },
    {
      "anonymous": false,
      "inputs": [
        {
          "indexed": true,
          "internalType": "address",
          "name": "sender",
          "type": "address"
        },
        {
          "indexed": true,
          "internalType": "address",
          "name": "to",
          "type": "address"
        },
        {
          "indexed": true,
          "internalType": "uint256",
          "name": "tokenId",
          "type": "uint256"
        },
        {
          "indexed": false,
          "internalType": "string",
          "name": "uri",
          "type": "string"
        },
        {
          "indexed": false,
          "internalType": "string",
          "name": "fileKey",
          "type": "string"
        }
      ],
      "name": "Mint",
      "type": "event"
    },
    {
      "anonymous": false,
      "inputs": [
        {
          "indexed": true,
          "internalType": "address",
          "name": "origin",
          "type": "address"
        },
        {
          "indexed": true,
          "internalType": "address",
          "name": "sender",
          "type": "address"
        },
        {
          "indexed": false,
          "internalType": "bytes32",
          "name": "publicKey",
          "type": "bytes32"
        }
      ],
      "name": "Register",
      "type": "event"
    },
    {
      "anonymous": false,
      "inputs": [
        {
          "indexed": true,
          "internalType": "address",
          "name": "owner",
          "type": "address"
        },
        {
          "indexed": true,
          "internalType": "address",
          "name": "to",
          "type": "address"
        },
        {
          "indexed": true,
          "internalType": "uint256",
          "name": "tokenId",
          "type": "uint256"
        },
        {
          "indexed": false,
          "internalType": "string",
          "name": "fileKey",
          "type": "string"
        }
      ],
      "name": "Share",
      "type": "event"
    },
    {
      "anonymous": false,
      "inputs": [
        {
          "indexed": true,
          "internalType": "address",
          "name": "from",
          "type": "address"
        },
        {
          "indexed": true,
          "internalType": "address",
          "name": "to",
          "type": "address"
        },
        {
          "indexed": true,
          "internalType": "uint256",
          "name": "tokenId",
          "type": "uint256"
        }
      ],
      "name": "Transfer",
      "type": "event"
    },
    {
      "anonymous": false,
      "inputs": [
        {
          "indexed": true,
          "internalType": "address",
          "name": "owner",
          "type": "address"
        },
        {
          "indexed": true,
          "internalType": "address",
          "name": "to",
          "type": "address"
        },
        {
          "indexed": true,
          "internalType": "uint256",
          "name": "tokenId",
          "type": "uint256"
        }
      ],
      "name": "Unshare",
      "type": "event"
    },
    {
      "inputs": [
        {
          "internalType": "address",
          "name": "to",
          "type": "address"
        },
        {
          "internalType": "uint256",
          "name": "tokenId",
          "type": "uint256"
        }
      ],
      "name": "approve",
      "outputs": [],
      "stateMutability": "nonpayable",
      "type": "function"
    },
    {
      "inputs": [
        {
          "internalType": "address",
          "name": "owner",
          "type": "address"
        }
      ],
      "name": "balanceOf",
      "outputs": [
        {
          "internalType": "uint256",
          "name": "",
          "type": "uint256"
        }
      ],
      "stateMutability": "view",
      "type": "function"
    },
    {
      "inputs": [
        {
          "internalType": "uint256",
          "name": "tokenId",
          "type": "uint256"
        }
      ],
      "name": "burn",
      "outputs": [],
      "stateMutability": "nonpayable",
      "type": "function"
    },
    {
      "inputs": [
        {
          "internalType": "uint256",
          "name": "",
          "type": "uint256"
        },
        {
          "internalType": "address",
          "name": "",
          "type": "address"
        }
      ],
      "name": "fileKeys",
      "outputs": [
        {
          "internalType": "string",
          "name": "",
          "type": "string"
        }
      ],
      "stateMutability": "view",
      "type": "function"
    },
    {
      "inputs": [
        {
          "internalType": "uint256",
          "name": "tokenId",
          "type": "uint256"
        }
      ],
      "name": "getApproved",
      "outputs": [
        {
          "internalType": "address",
          "name": "",
          "type": "address"
        }
      ],
      "stateMutability": "view",
      "type": "function"
    },
    {
      "inputs": [
        {
          "internalType": "address",
          "name": "owner",
          "type": "address"
        },
        {
          "internalType": "address",
          "name": "operator",
          "type": "address"
        }
      ],
      "name": "isApprovedForAll",
      "outputs": [
        {
          "internalType": "bool",
          "name": "",
          "type": "bool"
        }
      ],
      "stateMutability": "view",
      "type": "function"
    },
    {
      "inputs": [],
      "name": "name",
      "outputs": [
        {
          "internalType": "string",
          "name": "",
          "type": "string"
        }
      ],
      "stateMutability": "view",
      "type": "function"
    },
    {
      "inputs": [
        {
          "internalType": "uint256",
          "name": "tokenId",
          "type": "uint256"
        }
      ],
      "name": "ownerOf",
      "outputs": [
        {
          "internalType": "address",
          "name": "",
          "type": "address"
        }
      ],
      "stateMutability": "view",
      "type": "function"
    },
    {
      "inputs": [
        {
          "internalType": "address",
          "name": "",
          "type": "address"
        }
      ],
      "name": "publicKeys",
      "outputs": [
        {
          "internalType": "bytes32",
          "name": "",
          "type": "bytes32"
        }
      ],
      "stateMutability": "view",
      "type": "function"
    },
    {
      "inputs": [
        {
          "internalType": "bytes32",
          "name": "publicKey",
          "type": "bytes32"
        }
      ],
      "name": "register",
      "outputs": [],
      "stateMutability": "nonpayable",
      "type": "function"
    },
    {
      "inputs": [
        {
          "internalType": "address",
          "name": "to",
          "type": "address"
        },
        {
          "internalType": "string",
          "name": "uri",
          "type": "string"
        },
        {
          "internalType": "string",
          "name": "fileKey",
          "type": "string"
        }
      ],
      "name": "safeMint",
      "outputs": [],
      "stateMutability": "nonpayable",
      "type": "function"
    },
    {
      "inputs": [
        {
          "internalType": "address",
          "name": "from",
          "type": "address"
        },
        {
          "internalType": "address",
          "name": "to",
          "type": "address"
        },
        {
          "internalType": "uint256",
          "name": "tokenId",
          "type": "uint256"
        }
      ],
      "name": "safeTransferFrom",
      "outputs": [],
      "stateMutability": "nonpayable",
      "type": "function"
    },
    {
      "inputs": [
        {
          "internalType": "address",
          "name": "from",
          "type": "address"
        },
        {
          "internalType": "address",
          "name": "to",
          "type": "address"
        },
        {
          "internalType": "uint256",
          "name": "tokenId",
          "type": "uint256"
        },
        {
          "internalType": "bytes",
          "name": "data",
          "type": "bytes"
        }
      ],
      "name": "safeTransferFrom",
      "outputs": [],
      "stateMutability": "nonpayable",
      "type": "function"
    },
    {
      "inputs": [
        {
          "internalType": "address",
          "name": "operator",
          "type": "address"
        },
        {
          "internalType": "bool",
          "name": "approved",
          "type": "bool"
        }
      ],
      "name": "setApprovalForAll",
      "outputs": [],
      "stateMutability": "nonpayable",
      "type": "function"
    },
    {
      "inputs": [
        {
          "internalType": "uint256",
          "name": "tokenId",
          "type": "uint256"
        },
        {
          "internalType": "address",
          "name": "to",
          "type": "address"
        },
        {
          "internalType": "string",
          "name": "fileKey",
          "type": "string"
        }
      ],
      "name": "share",
      "outputs": [],
      "stateMutability": "nonpayable",
      "type": "function"
    },
    {
      "inputs": [
        {
          "internalType": "bytes4",
          "name": "interfaceId",
          "type": "bytes4"
        }
      ],
      "name": "supportsInterface",
      "outputs": [
        {
          "internalType": "bool",
          "name": "",
          "type": "bool"
        }
      ],
      "stateMutability": "view",
      "type": "function"
    },
    {
      "inputs": [],
      "name": "symbol",
      "outputs": [
        {
          "internalType": "string",
          "name": "",
          "type": "string"
        }
      ],
      "stateMutability": "view",
      "type": "function"
    },
    {
      "inputs": [
        {
          "internalType": "uint256",
          "name": "index",
          "type": "uint256"
        }
      ],
      "name": "tokenByIndex",
      "outputs": [
        {
          "internalType": "uint256",
          "name": "",
          "type": "uint256"
        }
      ],
      "stateMutability": "view",
      "type": "function"
    },
    {
      "inputs": [
        {
          "internalType": "address",
          "name": "owner",
          "type": "address"
        },
        {
          "internalType": "uint256",
          "name": "index",
          "type": "uint256"
        }
      ],
      "name": "tokenOfOwnerByIndex",
      "outputs": [
        {
          "internalType": "uint256",
          "name": "",
          "type": "uint256"
        }
      ],
      "stateMutability": "view",
      "type": "function"
    },
    {
      "inputs": [
        {
          "internalType": "uint256",
          "name": "tokenId",
          "type": "uint256"
        }
      ],
      "name": "tokenURI",
      "outputs": [
        {
          "internalType": "string",
          "name": "",
          "type": "string"
        }
      ],
      "stateMutability": "view",
      "type": "function"
    },
    {
      "inputs": [],
      "name": "totalSupply",
      "outputs": [
        {
          "internalType": "uint256",
          "name": "",
          "type": "uint256"
        }
      ],
      "stateMutability": "view",
      "type": "function"
    },
    {
      "inputs": [
        {
          "internalType": "address",
          "name": "from",
          "type": "address"
        },
        {
          "internalType": "address",
          "name": "to",
          "type": "address"
        },
        {
          "internalType": "uint256",
          "name": "tokenId",
          "type": "uint256"
        }
      ],
      "name": "transferFrom",
      "outputs": [],
      "stateMutability": "nonpayable",
      "type": "function"
    },
    {
      "inputs": [
        {
          "internalType": "uint256",
          "name": "tokenId",
          "type": "uint256"
        },
        {
          "internalType": "address",
          "name": "to",
          "type": "address"
        }
      ],
      "name": "unshare",
      "outputs": [],
      "stateMutability": "nonpayable",
      "type": "function"
    }
  ],
  "bytecode": "0x60806040523480156200001157600080fd5b506040518060400160405280600d81526020017f4d657461647269766546696c65000000000000000000000000000000000000008152506040518060400160405280600381526020017f4d44460000000000000000000000000000000000000000000000000000000000815250816000908051906020019062000096929190620000b8565b508060019080519060200190620000af929190620000b8565b505050620001cd565b828054620000c69062000197565b90600052602060002090601f016020900481019282620000ea576000855562000136565b82601f106200010557805160ff191683800117855562000136565b8280016001018555821562000136579182015b828111156200013557825182559160200191906001019062000118565b5b50905062000145919062000149565b5090565b5b80821115620001645760008160009055506001016200014a565b5090565b7f4e487b7100000000000000000000000000000000000000000000000000000000600052602260045260246000fd5b60006002820490506001821680620001b057607f821691505b60208210811415620001c757620001c662000168565b5b50919050565b613cd980620001dd6000396000f3fe608060405234801561001057600080fd5b506004361061014c5760003560e01c80636352211e116100c3578063b88d4fde1161007c578063b88d4fde146103d3578063c87b56dd146103ef578063e1fa8e841461041f578063e985e9c51461043b578063eca81d421461046b578063ff85142d146104875761014c565b80636352211e146102d957806370a08231146103095780638e2ad2181461033957806395d89b4114610369578063a22cb46514610387578063a3d6f9a9146103a35761014c565b806318160ddd1161011557806318160ddd1461020757806323b872dd146102255780632f745c591461024157806342842e0e1461027157806342966c681461028d5780634f6ccce7146102a95761014c565b8062fd9b531461015157806301ffc9a71461016d57806306fdde031461019d578063081812fc146101bb578063095ea7b3146101eb575b600080fd5b61016b60048036038101906101669190612a5e565b6104a3565b005b61018760048036038101906101829190612b25565b610674565b6040516101949190612b6d565b60405180910390f35b6101a5610686565b6040516101b29190612c10565b60405180910390f35b6101d560048036038101906101d09190612c32565b610718565b6040516101e29190612c6e565b60405180910390f35b61020560048036038101906102009190612c89565b61075e565b005b61020f610876565b60405161021c9190612cd8565b60405180910390f35b61023f600480360381019061023a9190612cf3565b610883565b005b61025b60048036038101906102569190612c89565b6108e3565b6040516102689190612cd8565b60405180910390f35b61028b60048036038101906102869190612cf3565b610988565b005b6102a760048036038101906102a29190612c32565b6109a8565b005b6102c360048036038101906102be9190612c32565b610a04565b6040516102d09190612cd8565b60405180910390f35b6102f360048036038101906102ee9190612c32565b610a75565b6040516103009190612c6e565b60405180910390f35b610323600480360381019061031e9190612d46565b610b27565b6040516103309190612cd8565b60405180910390f35b610353600480360381019061034e9190612d73565b610bdf565b6040516103609190612c10565b60405180910390f35b610371610c8c565b60405161037e9190612c10565b60405180910390f35b6103a1600480360381019061039c9190612ddf565b610d1e565b005b6103bd60048036038101906103b89190612d46565b610d34565b6040516103ca9190612e38565b60405180910390f35b6103ed60048036038101906103e89190612ef4565b610d4c565b005b61040960048036038101906104049190612c32565b610dae565b6040516104169190612c10565b60405180910390f35b61043960048036038101906104349190612fa3565b610dc0565b005b61045560048036038101906104509190612fd0565b610e6c565b6040516104629190612b6d565b60405180910390f35b61048560048036038101906104809190613010565b610f00565b005b6104a1600480360381019061049c9190612d73565b611086565b005b816000801b600d60008373ffffffffffffffffffffffffffffffffffffffff1673ffffffffffffffffffffffffffffffffffffffff168152602001908152602001600020541415610529576040517f08c379a0000000000000000000000000000000000000000000000000000000008152600401610520906130e7565b60405180910390fd5b833361053482610a75565b73ffffffffffffffffffffffffffffffffffffffff168173ffffffffffffffffffffffffffffffffffffffff16146105a1576040517f08c379a000000000000000000000000000000000000000000000000000000000815260040161059890613153565b60405180910390fd5b83600c600088815260200190815260200160002060008773ffffffffffffffffffffffffffffffffffffffff1673ffffffffffffffffffffffffffffffffffffffff168152602001908152602001600020908051906020019061060592919061278d565b50858573ffffffffffffffffffffffffffffffffffffffff163373ffffffffffffffffffffffffffffffffffffffff167f811dc999d5172cf42e886606418924a909d63e6d4b0570c885a46bcf12babea8876040516106649190612c10565b60405180910390a4505050505050565b600061067f82611242565b9050919050565b606060008054610695906131a2565b80601f01602080910402602001604051908101604052809291908181526020018280546106c1906131a2565b801561070e5780601f106106e35761010080835404028352916020019161070e565b820191906000526020600020905b8154815290600101906020018083116106f157829003601f168201915b5050505050905090565b6000610723826112bc565b6004600083815260200190815260200160002060009054906101000a900473ffffffffffffffffffffffffffffffffffffffff169050919050565b600061076982610a75565b90508073ffffffffffffffffffffffffffffffffffffffff168373ffffffffffffffffffffffffffffffffffffffff1614156107da576040517f08c379a00000000000000000000000000000000000000000000000000000000081526004016107d190613246565b60405180910390fd5b8073ffffffffffffffffffffffffffffffffffffffff166107f9611307565b73ffffffffffffffffffffffffffffffffffffffff161480610828575061082781610822611307565b610e6c565b5b610867576040517f08c379a000000000000000000000000000000000000000000000000000000000815260040161085e906132d8565b60405180910390fd5b610871838361130f565b505050565b6000600880549050905090565b61089461088e611307565b826113c8565b6108d3576040517f08c379a00000000000000000000000000000000000000000000000000000000081526004016108ca9061336a565b60405180910390fd5b6108de83838361145d565b505050565b60006108ee83610b27565b821061092f576040517f08c379a0000000000000000000000000000000000000000000000000000000008152600401610926906133fc565b60405180910390fd5b600660008473ffffffffffffffffffffffffffffffffffffffff1673ffffffffffffffffffffffffffffffffffffffff168152602001908152602001600020600083815260200190815260200160002054905092915050565b6109a383838360405180602001604052806000815250610d4c565b505050565b6109b96109b3611307565b826113c8565b6109f8576040517f08c379a00000000000000000000000000000000000000000000000000000000081526004016109ef9061336a565b60405180910390fd5b610a01816116c4565b50565b6000610a0e610876565b8210610a4f576040517f08c379a0000000000000000000000000000000000000000000000000000000008152600401610a469061348e565b60405180910390fd5b60088281548110610a6357610a626134ae565b5b90600052602060002001549050919050565b6000806002600084815260200190815260200160002060009054906101000a900473ffffffffffffffffffffffffffffffffffffffff169050600073ffffffffffffffffffffffffffffffffffffffff168173ffffffffffffffffffffffffffffffffffffffff161415610b1e576040517f08c379a0000000000000000000000000000000000000000000000000000000008152600401610b1590613529565b60405180910390fd5b80915050919050565b60008073ffffffffffffffffffffffffffffffffffffffff168273ffffffffffffffffffffffffffffffffffffffff161415610b98576040517f08c379a0000000000000000000000000000000000000000000000000000000008152600401610b8f906135bb565b60405180910390fd5b600360008373ffffffffffffffffffffffffffffffffffffffff1673ffffffffffffffffffffffffffffffffffffffff168152602001908152602001600020549050919050565b600c602052816000526040600020602052806000526040600020600091509150508054610c0b906131a2565b80601f0160208091040260200160405190810160405280929190818152602001828054610c37906131a2565b8015610c845780601f10610c5957610100808354040283529160200191610c84565b820191906000526020600020905b815481529060010190602001808311610c6757829003601f168201915b505050505081565b606060018054610c9b906131a2565b80601f0160208091040260200160405190810160405280929190818152602001828054610cc7906131a2565b8015610d145780601f10610ce957610100808354040283529160200191610d14565b820191906000526020600020905b815481529060010190602001808311610cf757829003601f168201915b5050505050905090565b610d30610d29611307565b83836116d0565b5050565b600d6020528060005260406000206000915090505481565b610d5d610d57611307565b836113c8565b610d9c576040517f08c379a0000000000000000000000000000000000000000000000000000000008152600401610d939061336a565b60405180910390fd5b610da88484848461183d565b50505050565b6060610db982611899565b9050919050565b80600d60003273ffffffffffffffffffffffffffffffffffffffff1673ffffffffffffffffffffffffffffffffffffffff168152602001908152602001600020819055503373ffffffffffffffffffffffffffffffffffffffff163273ffffffffffffffffffffffffffffffffffffffff167f3a43fa40a6b9fb56bbbbaa1478eb0337cf539b51902c9de9ae1ed66367c2aa8a83604051610e619190612e38565b60405180910390a350565b6000600560008473ffffffffffffffffffffffffffffffffffffffff1673ffffffffffffffffffffffffffffffffffffffff16815260200190815260200160002060008373ffffffffffffffffffffffffffffffffffffffff1673ffffffffffffffffffffffffffffffffffffffff16815260200190815260200160002060009054906101000a900460ff16905092915050565b826000801b600d60008373ffffffffffffffffffffffffffffffffffffffff1673ffffffffffffffffffffffffffffffffffffffff168152602001908152602001600020541415610f86576040517f08c379a0000000000000000000000000000000000000000000000000000000008152600401610f7d906130e7565b60405180910390fd5b6000610f92600b6119ac565b9050610f9e600b6119ba565b610fa885826119d0565b610fb281856119ee565b82600c600083815260200190815260200160002060008773ffffffffffffffffffffffffffffffffffffffff1673ffffffffffffffffffffffffffffffffffffffff168152602001908152602001600020908051906020019061101692919061278d565b50808573ffffffffffffffffffffffffffffffffffffffff163373ffffffffffffffffffffffffffffffffffffffff167fbcbdd12a69b062fdf92afc8442c05608dcd879b7ae42a9c0555aaa729538cc4487876040516110779291906135db565b60405180910390a45050505050565b806000801b600d60008373ffffffffffffffffffffffffffffffffffffffff1673ffffffffffffffffffffffffffffffffffffffff16815260200190815260200160002054141561110c576040517f08c379a0000000000000000000000000000000000000000000000000000000008152600401611103906130e7565b60405180910390fd5b823361111782610a75565b73ffffffffffffffffffffffffffffffffffffffff168173ffffffffffffffffffffffffffffffffffffffff1614611184576040517f08c379a000000000000000000000000000000000000000000000000000000000815260040161117b90613153565b60405180910390fd5b600c600086815260200190815260200160002060008573ffffffffffffffffffffffffffffffffffffffff1673ffffffffffffffffffffffffffffffffffffffff16815260200190815260200160002060006111e09190612813565b848473ffffffffffffffffffffffffffffffffffffffff163373ffffffffffffffffffffffffffffffffffffffff167f32d6898acee9fb239f4344b57ad30575fc6ccfd8669a0bc3525e037f0c62cf7460405160405180910390a45050505050565b60007f780e9d63000000000000000000000000000000000000000000000000000000007bffffffffffffffffffffffffffffffffffffffffffffffffffffffff1916827bffffffffffffffffffffffffffffffffffffffffffffffffffffffff191614806112b557506112b482611a62565b5b9050919050565b6112c581611b44565b611304576040517f08c379a00000000000000000000000000000000000000000000000000000000081526004016112fb90613529565b60405180910390fd5b50565b600033905090565b816004600083815260200190815260200160002060006101000a81548173ffffffffffffffffffffffffffffffffffffffff021916908373ffffffffffffffffffffffffffffffffffffffff160217905550808273ffffffffffffffffffffffffffffffffffffffff1661138283610a75565b73ffffffffffffffffffffffffffffffffffffffff167f8c5be1e5ebec7d5bd14f71427d1e84f3dd0314c0f7b2291e5b200ac8c7c3b92560405160405180910390a45050565b6000806113d483610a75565b90508073ffffffffffffffffffffffffffffffffffffffff168473ffffffffffffffffffffffffffffffffffffffff16148061141657506114158185610e6c565b5b8061145457508373ffffffffffffffffffffffffffffffffffffffff1661143c84610718565b73ffffffffffffffffffffffffffffffffffffffff16145b91505092915050565b8273ffffffffffffffffffffffffffffffffffffffff1661147d82610a75565b73ffffffffffffffffffffffffffffffffffffffff16146114d3576040517f08c379a00000000000000000000000000000000000000000000000000000000081526004016114ca90613684565b60405180910390fd5b600073ffffffffffffffffffffffffffffffffffffffff168273ffffffffffffffffffffffffffffffffffffffff161415611543576040517f08c379a000000000000000000000000000000000000000000000000000000000815260040161153a90613716565b60405180910390fd5b61154e838383611bb0565b61155960008261130f565b6001600360008573ffffffffffffffffffffffffffffffffffffffff1673ffffffffffffffffffffffffffffffffffffffff16815260200190815260200160002060008282546115a99190613765565b925050819055506001600360008473ffffffffffffffffffffffffffffffffffffffff1673ffffffffffffffffffffffffffffffffffffffff16815260200190815260200160002060008282546116009190613799565b92505081905550816002600083815260200190815260200160002060006101000a81548173ffffffffffffffffffffffffffffffffffffffff021916908373ffffffffffffffffffffffffffffffffffffffff160217905550808273ffffffffffffffffffffffffffffffffffffffff168473ffffffffffffffffffffffffffffffffffffffff167fddf252ad1be2c89b69c2b068fc378daa952ba7f163c4a11628f55a4df523b3ef60405160405180910390a46116bf838383611bc0565b505050565b6116cd81611bc5565b50565b8173ffffffffffffffffffffffffffffffffffffffff168373ffffffffffffffffffffffffffffffffffffffff16141561173f576040517f08c379a00000000000000000000000000000000000000000000000000000000081526004016117369061383b565b60405180910390fd5b80600560008573ffffffffffffffffffffffffffffffffffffffff1673ffffffffffffffffffffffffffffffffffffffff16815260200190815260200160002060008473ffffffffffffffffffffffffffffffffffffffff1673ffffffffffffffffffffffffffffffffffffffff16815260200190815260200160002060006101000a81548160ff0219169083151502179055508173ffffffffffffffffffffffffffffffffffffffff168373ffffffffffffffffffffffffffffffffffffffff167f17307eab39ab6107e8899845ad3d59bd9653f200f220920489ca2b5937696c31836040516118309190612b6d565b60405180910390a3505050565b61184884848461145d565b61185484848484611c18565b611893576040517f08c379a000000000000000000000000000000000000000000000000000000000815260040161188a906138cd565b60405180910390fd5b50505050565b60606118a4826112bc565b6000600a600084815260200190815260200160002080546118c4906131a2565b80601f01602080910402602001604051908101604052809291908181526020018280546118f0906131a2565b801561193d5780601f106119125761010080835404028352916020019161193d565b820191906000526020600020905b81548152906001019060200180831161192057829003601f168201915b50505050509050600061194e611daf565b90506000815114156119645781925050506119a7565b600082511115611999578082604051602001611981929190613929565b604051602081830303815290604052925050506119a7565b6119a284611dc6565b925050505b919050565b600081600001549050919050565b6001816000016000828254019250508190555050565b6119ea828260405180602001604052806000815250611e2e565b5050565b6119f782611b44565b611a36576040517f08c379a0000000000000000000000000000000000000000000000000000000008152600401611a2d906139bf565b60405180910390fd5b80600a60008481526020019081526020016000209080519060200190611a5d92919061278d565b505050565b60007f80ac58cd000000000000000000000000000000000000000000000000000000007bffffffffffffffffffffffffffffffffffffffffffffffffffffffff1916827bffffffffffffffffffffffffffffffffffffffffffffffffffffffff19161480611b2d57507f5b5e139f000000000000000000000000000000000000000000000000000000007bffffffffffffffffffffffffffffffffffffffffffffffffffffffff1916827bffffffffffffffffffffffffffffffffffffffffffffffffffffffff1916145b80611b3d5750611b3c82611e89565b5b9050919050565b60008073ffffffffffffffffffffffffffffffffffffffff166002600084815260200190815260200160002060009054906101000a900473ffffffffffffffffffffffffffffffffffffffff1673ffffffffffffffffffffffffffffffffffffffff1614159050919050565b611bbb838383611ef3565b505050565b505050565b611bce81612007565b6000600a60008381526020019081526020016000208054611bee906131a2565b905014611c1557600a60008281526020019081526020016000206000611c149190612813565b5b50565b6000611c398473ffffffffffffffffffffffffffffffffffffffff16612124565b15611da2578373ffffffffffffffffffffffffffffffffffffffff1663150b7a02611c62611307565b8786866040518563ffffffff1660e01b8152600401611c849493929190613a34565b602060405180830381600087803b158015611c9e57600080fd5b505af1925050508015611ccf57506040513d601f19601f82011682018060405250810190611ccc9190613a95565b60015b611d52573d8060008114611cff576040519150601f19603f3d011682016040523d82523d6000602084013e611d04565b606091505b50600081511415611d4a576040517f08c379a0000000000000000000000000000000000000000000000000000000008152600401611d41906138cd565b60405180910390fd5b805181602001fd5b63150b7a0260e01b7bffffffffffffffffffffffffffffffffffffffffffffffffffffffff1916817bffffffffffffffffffffffffffffffffffffffffffffffffffffffff191614915050611da7565b600190505b949350505050565b606060405180602001604052806000815250905090565b6060611dd1826112bc565b6000611ddb611daf565b90506000815111611dfb5760405180602001604052806000815250611e26565b80611e0584612147565b604051602001611e16929190613929565b6040516020818303038152906040525b915050919050565b611e3883836122a8565b611e456000848484611c18565b611e84576040517f08c379a0000000000000000000000000000000000000000000000000000000008152600401611e7b906138cd565b60405180910390fd5b505050565b60007f01ffc9a7000000000000000000000000000000000000000000000000000000007bffffffffffffffffffffffffffffffffffffffffffffffffffffffff1916827bffffffffffffffffffffffffffffffffffffffffffffffffffffffff1916149050919050565b611efe838383612482565b600073ffffffffffffffffffffffffffffffffffffffff168373ffffffffffffffffffffffffffffffffffffffff161415611f4157611f3c81612487565b611f80565b8173ffffffffffffffffffffffffffffffffffffffff168373ffffffffffffffffffffffffffffffffffffffff1614611f7f57611f7e83826124d0565b5b5b600073ffffffffffffffffffffffffffffffffffffffff168273ffffffffffffffffffffffffffffffffffffffff161415611fc357611fbe8161263d565b612002565b8273ffffffffffffffffffffffffffffffffffffffff168273ffffffffffffffffffffffffffffffffffffffff161461200157612000828261270e565b5b5b505050565b600061201282610a75565b905061202081600084611bb0565b61202b60008361130f565b6001600360008373ffffffffffffffffffffffffffffffffffffffff1673ffffffffffffffffffffffffffffffffffffffff168152602001908152602001600020600082825461207b9190613765565b925050819055506002600083815260200190815260200160002060006101000a81549073ffffffffffffffffffffffffffffffffffffffff021916905581600073ffffffffffffffffffffffffffffffffffffffff168273ffffffffffffffffffffffffffffffffffffffff167fddf252ad1be2c89b69c2b068fc378daa952ba7f163c4a11628f55a4df523b3ef60405160405180910390a461212081600084611bc0565b5050565b6000808273ffffffffffffffffffffffffffffffffffffffff163b119050919050565b6060600082141561218f576040518060400160405280600181526020017f300000000000000000000000000000000000000000000000000000000000000081525090506122a3565b600082905060005b600082146121c15780806121aa90613ac2565b915050600a826121ba9190613b3a565b9150612197565b60008167ffffffffffffffff8111156121dd576121dc612933565b5b6040519080825280601f01601f19166020018201604052801561220f5781602001600182028036833780820191505090505b5090505b6000851461229c576001826122289190613765565b9150600a856122379190613b6b565b60306122439190613799565b60f81b818381518110612259576122586134ae565b5b60200101907effffffffffffffffffffffffffffffffffffffffffffffffffffffffffffff1916908160001a905350600a856122959190613b3a565b9450612213565b8093505050505b919050565b600073ffffffffffffffffffffffffffffffffffffffff168273ffffffffffffffffffffffffffffffffffffffff161415612318576040517f08c379a000000000000000000000000000000000000000000000000000000000815260040161230f90613be8565b60405180910390fd5b61232181611b44565b15612361576040517f08c379a000000000000000000000000000000000000000000000000000000000815260040161235890613c54565b60405180910390fd5b61236d60008383611bb0565b6001600360008473ffffffffffffffffffffffffffffffffffffffff1673ffffffffffffffffffffffffffffffffffffffff16815260200190815260200160002060008282546123bd9190613799565b92505081905550816002600083815260200190815260200160002060006101000a81548173ffffffffffffffffffffffffffffffffffffffff021916908373ffffffffffffffffffffffffffffffffffffffff160217905550808273ffffffffffffffffffffffffffffffffffffffff16600073ffffffffffffffffffffffffffffffffffffffff167fddf252ad1be2c89b69c2b068fc378daa952ba7f163c4a11628f55a4df523b3ef60405160405180910390a461247e60008383611bc0565b5050565b505050565b6008805490506009600083815260200190815260200160002081905550600881908060018154018082558091505060019003906000526020600020016000909190919091505550565b600060016124dd84610b27565b6124e79190613765565b90506000600760008481526020019081526020016000205490508181146125cc576000600660008673ffffffffffffffffffffffffffffffffffffffff1673ffffffffffffffffffffffffffffffffffffffff168152602001908152602001600020600084815260200190815260200160002054905080600660008773ffffffffffffffffffffffffffffffffffffffff1673ffffffffffffffffffffffffffffffffffffffff168152602001908152602001600020600084815260200190815260200160002081905550816007600083815260200190815260200160002081905550505b6007600084815260200190815260200160002060009055600660008573ffffffffffffffffffffffffffffffffffffffff1673ffffffffffffffffffffffffffffffffffffffff16815260200190815260200160002060008381526020019081526020016000206000905550505050565b600060016008805490506126519190613765565b9050600060096000848152602001908152602001600020549050600060088381548110612681576126806134ae565b5b9060005260206000200154905080600883815481106126a3576126a26134ae565b5b9060005260206000200181905550816009600083815260200190815260200160002081905550600960008581526020019081526020016000206000905560088054806126f2576126f1613c74565b5b6001900381819060005260206000200160009055905550505050565b600061271983610b27565b905081600660008573ffffffffffffffffffffffffffffffffffffffff1673ffffffffffffffffffffffffffffffffffffffff168152602001908152602001600020600083815260200190815260200160002081905550806007600084815260200190815260200160002081905550505050565b828054612799906131a2565b90600052602060002090601f0160209004810192826127bb5760008555612802565b82601f106127d457805160ff1916838001178555612802565b82800160010185558215612802579182015b828111156128015782518255916020019190600101906127e6565b5b50905061280f9190612853565b5090565b50805461281f906131a2565b6000825580601f106128315750612850565b601f01602090049060005260206000209081019061284f9190612853565b5b50565b5b8082111561286c576000816000905550600101612854565b5090565b6000604051905090565b600080fd5b600080fd5b6000819050919050565b61289781612884565b81146128a257600080fd5b50565b6000813590506128b48161288e565b92915050565b600073ffffffffffffffffffffffffffffffffffffffff82169050919050565b60006128e5826128ba565b9050919050565b6128f5816128da565b811461290057600080fd5b50565b600081359050612912816128ec565b92915050565b600080fd5b600080fd5b6000601f19601f8301169050919050565b7f4e487b7100000000000000000000000000000000000000000000000000000000600052604160045260246000fd5b61296b82612922565b810181811067ffffffffffffffff8211171561298a57612989612933565b5b80604052505050565b600061299d612870565b90506129a98282612962565b919050565b600067ffffffffffffffff8211156129c9576129c8612933565b5b6129d282612922565b9050602081019050919050565b82818337600083830152505050565b6000612a016129fc846129ae565b612993565b905082815260208101848484011115612a1d57612a1c61291d565b5b612a288482856129df565b509392505050565b600082601f830112612a4557612a44612918565b5b8135612a558482602086016129ee565b91505092915050565b600080600060608486031215612a7757612a7661287a565b5b6000612a85868287016128a5565b9350506020612a9686828701612903565b925050604084013567ffffffffffffffff811115612ab757612ab661287f565b5b612ac386828701612a30565b9150509250925092565b60007fffffffff0000000000000000000000000000000000000000000000000000000082169050919050565b612b0281612acd565b8114612b0d57600080fd5b50565b600081359050612b1f81612af9565b92915050565b600060208284031215612b3b57612b3a61287a565b5b6000612b4984828501612b10565b91505092915050565b60008115159050919050565b612b6781612b52565b82525050565b6000602082019050612b826000830184612b5e565b92915050565b600081519050919050565b600082825260208201905092915050565b60005b83811015612bc2578082015181840152602081019050612ba7565b83811115612bd1576000848401525b50505050565b6000612be282612b88565b612bec8185612b93565b9350612bfc818560208601612ba4565b612c0581612922565b840191505092915050565b60006020820190508181036000830152612c2a8184612bd7565b905092915050565b600060208284031215612c4857612c4761287a565b5b6000612c56848285016128a5565b91505092915050565b612c68816128da565b82525050565b6000602082019050612c836000830184612c5f565b92915050565b60008060408385031215612ca057612c9f61287a565b5b6000612cae85828601612903565b9250506020612cbf858286016128a5565b9150509250929050565b612cd281612884565b82525050565b6000602082019050612ced6000830184612cc9565b92915050565b600080600060608486031215612d0c57612d0b61287a565b5b6000612d1a86828701612903565b9350506020612d2b86828701612903565b9250506040612d3c868287016128a5565b9150509250925092565b600060208284031215612d5c57612d5b61287a565b5b6000612d6a84828501612903565b91505092915050565b60008060408385031215612d8a57612d8961287a565b5b6000612d98858286016128a5565b9250506020612da985828601612903565b9150509250929050565b612dbc81612b52565b8114612dc757600080fd5b50565b600081359050612dd981612db3565b92915050565b60008060408385031215612df657612df561287a565b5b6000612e0485828601612903565b9250506020612e1585828601612dca565b9150509250929050565b6000819050919050565b612e3281612e1f565b82525050565b6000602082019050612e4d6000830184612e29565b92915050565b600067ffffffffffffffff821115612e6e57612e6d612933565b5b612e7782612922565b9050602081019050919050565b6000612e97612e9284612e53565b612993565b905082815260208101848484011115612eb357612eb261291d565b5b612ebe8482856129df565b509392505050565b600082601f830112612edb57612eda612918565b5b8135612eeb848260208601612e84565b91505092915050565b60008060008060808587031215612f0e57612f0d61287a565b5b6000612f1c87828801612903565b9450506020612f2d87828801612903565b9350506040612f3e878288016128a5565b925050606085013567ffffffffffffffff811115612f5f57612f5e61287f565b5b612f6b87828801612ec6565b91505092959194509250565b612f8081612e1f565b8114612f8b57600080fd5b50565b600081359050612f9d81612f77565b92915050565b600060208284031215612fb957612fb861287a565b5b6000612fc784828501612f8e565b91505092915050565b60008060408385031215612fe757612fe661287a565b5b6000612ff585828601612903565b925050602061300685828601612903565b9150509250929050565b6000806000606084860312156130295761302861287a565b5b600061303786828701612903565b935050602084013567ffffffffffffffff8111156130585761305761287f565b5b61306486828701612a30565b925050604084013567ffffffffffffffff8111156130855761308461287f565b5b61309186828701612a30565b9150509250925092565b7f41646472657373206973206e6f7420726567697374657265642e000000000000600082015250565b60006130d1601a83612b93565b91506130dc8261309b565b602082019050919050565b60006020820190508181036000830152613100816130c4565b9050919050565b7f4164647265737320646f6573206e6f74206f776e207468652066696c652e0000600082015250565b600061313d601e83612b93565b915061314882613107565b602082019050919050565b6000602082019050818103600083015261316c81613130565b9050919050565b7f4e487b7100000000000000000000000000000000000000000000000000000000600052602260045260246000fd5b600060028204905060018216806131ba57607f821691505b602082108114156131ce576131cd613173565b5b50919050565b7f4552433732313a20617070726f76616c20746f2063757272656e74206f776e6560008201527f7200000000000000000000000000000000000000000000000000000000000000602082015250565b6000613230602183612b93565b915061323b826131d4565b604082019050919050565b6000602082019050818103600083015261325f81613223565b9050919050565b7f4552433732313a20617070726f76652063616c6c6572206973206e6f7420746f60008201527f6b656e206f776e6572206e6f7220617070726f76656420666f7220616c6c0000602082015250565b60006132c2603e83612b93565b91506132cd82613266565b604082019050919050565b600060208201905081810360008301526132f1816132b5565b9050919050565b7f4552433732313a2063616c6c6572206973206e6f7420746f6b656e206f776e6560008201527f72206e6f7220617070726f766564000000000000000000000000000000000000602082015250565b6000613354602e83612b93565b915061335f826132f8565b604082019050919050565b6000602082019050818103600083015261338381613347565b9050919050565b7f455243373231456e756d657261626c653a206f776e657220696e646578206f7560008201527f74206f6620626f756e6473000000000000000000000000000000000000000000602082015250565b60006133e6602b83612b93565b91506133f18261338a565b604082019050919050565b60006020820190508181036000830152613415816133d9565b9050919050565b7f455243373231456e756d657261626c653a20676c6f62616c20696e646578206f60008201527f7574206f6620626f756e64730000000000000000000000000000000000000000602082015250565b6000613478602c83612b93565b91506134838261341c565b604082019050919050565b600060208201905081810360008301526134a78161346b565b9050919050565b7f4e487b7100000000000000000000000000000000000000000000000000000000600052603260045260246000fd5b7f4552433732313a20696e76616c696420746f6b656e2049440000000000000000600082015250565b6000613513601883612b93565b915061351e826134dd565b602082019050919050565b6000602082019050818103600083015261354281613506565b9050919050565b7f4552433732313a2061646472657373207a65726f206973206e6f74206120766160008201527f6c6964206f776e65720000000000000000000000000000000000000000000000602082015250565b60006135a5602983612b93565b91506135b082613549565b604082019050919050565b600060208201905081810360008301526135d481613598565b9050919050565b600060408201905081810360008301526135f58185612bd7565b905081810360208301526136098184612bd7565b90509392505050565b7f4552433732313a207472616e736665722066726f6d20696e636f72726563742060008201527f6f776e6572000000000000000000000000000000000000000000000000000000602082015250565b600061366e602583612b93565b915061367982613612565b604082019050919050565b6000602082019050818103600083015261369d81613661565b9050919050565b7f4552433732313a207472616e7366657220746f20746865207a65726f2061646460008201527f7265737300000000000000000000000000000000000000000000000000000000602082015250565b6000613700602483612b93565b915061370b826136a4565b604082019050919050565b6000602082019050818103600083015261372f816136f3565b9050919050565b7f4e487b7100000000000000000000000000000000000000000000000000000000600052601160045260246000fd5b600061377082612884565b915061377b83612884565b92508282101561378e5761378d613736565b5b828203905092915050565b60006137a482612884565b91506137af83612884565b9250827fffffffffffffffffffffffffffffffffffffffffffffffffffffffffffffffff038211156137e4576137e3613736565b5b828201905092915050565b7f4552433732313a20617070726f766520746f2063616c6c657200000000000000600082015250565b6000613825601983612b93565b9150613830826137ef565b602082019050919050565b6000602082019050818103600083015261385481613818565b9050919050565b7f4552433732313a207472616e7366657220746f206e6f6e20455243373231526560008201527f63656976657220696d706c656d656e7465720000000000000000000000000000602082015250565b60006138b7603283612b93565b91506138c28261385b565b604082019050919050565b600060208201905081810360008301526138e6816138aa565b9050919050565b600081905092915050565b600061390382612b88565b61390d81856138ed565b935061391d818560208601612ba4565b80840191505092915050565b600061393582856138f8565b915061394182846138f8565b91508190509392505050565b7f45524337323155524953746f726167653a2055524920736574206f66206e6f6e60008201527f6578697374656e7420746f6b656e000000000000000000000000000000000000602082015250565b60006139a9602e83612b93565b91506139b48261394d565b604082019050919050565b600060208201905081810360008301526139d88161399c565b9050919050565b600081519050919050565b600082825260208201905092915050565b6000613a06826139df565b613a1081856139ea565b9350613a20818560208601612ba4565b613a2981612922565b840191505092915050565b6000608082019050613a496000830187612c5f565b613a566020830186612c5f565b613a636040830185612cc9565b8181036060830152613a7581846139fb565b905095945050505050565b600081519050613a8f81612af9565b92915050565b600060208284031215613aab57613aaa61287a565b5b6000613ab984828501613a80565b91505092915050565b6000613acd82612884565b91507fffffffffffffffffffffffffffffffffffffffffffffffffffffffffffffffff821415613b0057613aff613736565b5b600182019050919050565b7f4e487b7100000000000000000000000000000000000000000000000000000000600052601260045260246000fd5b6000613b4582612884565b9150613b5083612884565b925082613b6057613b5f613b0b565b5b828204905092915050565b6000613b7682612884565b9150613b8183612884565b925082613b9157613b90613b0b565b5b828206905092915050565b7f4552433732313a206d696e7420746f20746865207a65726f2061646472657373600082015250565b6000613bd2602083612b93565b9150613bdd82613b9c565b602082019050919050565b60006020820190508181036000830152613c0181613bc5565b9050919050565b7f4552433732313a20746f6b656e20616c7265616479206d696e74656400000000600082015250565b6000613c3e601c83612b93565b9150613c4982613c08565b602082019050919050565b60006020820190508181036000830152613c6d81613c31565b9050919050565b7f4e487b7100000000000000000000000000000000000000000000000000000000600052603160045260246000fdfea2646970667358221220e473433b313a83777592d3fa603ea7fb6c6e2a9cea078155564e1e542e4a638064736f6c63430008090033",
  "linkReferences": {},
  "deployedLinkReferences": {}
}